{
  "_format": "hh-sol-artifact-1",
  "contractName": "RewardRedemption",
  "sourceName": "src/contracts/RewardsRedemption.sol",
  "abi": [
    {
      "inputs": [],
      "stateMutability": "nonpayable",
      "type": "constructor"
    },
    {
      "anonymous": false,
      "inputs": [
        {
          "indexed": true,
          "internalType": "address",
          "name": "user",
          "type": "address"
        },
        {
          "indexed": false,
          "internalType": "uint256",
          "name": "amount",
          "type": "uint256"
        },
        {
          "indexed": false,
          "internalType": "bytes32",
          "name": "orderId",
          "type": "bytes32"
        }
      ],
      "name": "RewardClaimed",
      "type": "event"
    },
    {
      "inputs": [
        {
          "internalType": "uint256",
          "name": "rewardAmount",
          "type": "uint256"
        },
        {
          "internalType": "bytes32",
          "name": "orderId",
          "type": "bytes32"
        },
        {
          "internalType": "bytes",
          "name": "signature",
          "type": "bytes"
        }
      ],
      "name": "claimReward",
      "outputs": [],
      "stateMutability": "nonpayable",
      "type": "function"
    },
    {
      "inputs": [],
      "name": "deposit",
      "outputs": [],
      "stateMutability": "payable",
      "type": "function"
    },
    {
      "inputs": [],
      "name": "getContractBalance",
      "outputs": [
        {
          "internalType": "uint256",
          "name": "",
          "type": "uint256"
        }
      ],
      "stateMutability": "view",
      "type": "function"
    },
    {
      "inputs": [
        {
          "internalType": "bytes32",
          "name": "messageHash",
          "type": "bytes32"
        }
      ],
      "name": "getEthSignedMessageHash",
      "outputs": [
        {
          "internalType": "bytes32",
          "name": "",
          "type": "bytes32"
        }
      ],
      "stateMutability": "pure",
      "type": "function"
    },
    {
      "inputs": [
        {
          "internalType": "address",
          "name": "user",
          "type": "address"
        },
        {
          "internalType": "uint256",
          "name": "rewardAmount",
          "type": "uint256"
        },
        {
          "internalType": "bytes32",
          "name": "orderId",
          "type": "bytes32"
        }
      ],
      "name": "getMessageHash",
      "outputs": [
        {
          "internalType": "bytes32",
          "name": "",
          "type": "bytes32"
        }
      ],
      "stateMutability": "pure",
      "type": "function"
    },
    {
      "inputs": [],
      "name": "owner",
      "outputs": [
        {
          "internalType": "address",
          "name": "",
          "type": "address"
        }
      ],
      "stateMutability": "view",
      "type": "function"
    },
    {
      "inputs": [
        {
          "internalType": "bytes32",
          "name": "messageHash",
          "type": "bytes32"
        },
        {
          "internalType": "bytes",
          "name": "signature",
          "type": "bytes"
        }
      ],
      "name": "recoverSigner",
      "outputs": [
        {
          "internalType": "address",
          "name": "",
          "type": "address"
        }
      ],
      "stateMutability": "pure",
      "type": "function"
    },
    {
      "inputs": [
        {
          "internalType": "bytes32",
          "name": "",
          "type": "bytes32"
        }
      ],
      "name": "redeemedOrders",
      "outputs": [
        {
          "internalType": "bool",
          "name": "",
          "type": "bool"
        }
      ],
      "stateMutability": "view",
      "type": "function"
    },
    {
      "inputs": [
        {
          "internalType": "bytes",
          "name": "sig",
          "type": "bytes"
        }
      ],
      "name": "splitSignature",
      "outputs": [
        {
          "internalType": "bytes32",
          "name": "r",
          "type": "bytes32"
        },
        {
          "internalType": "bytes32",
          "name": "s",
          "type": "bytes32"
        },
        {
          "internalType": "uint8",
          "name": "v",
          "type": "uint8"
        }
      ],
      "stateMutability": "pure",
      "type": "function"
    },
    {
      "inputs": [
        {
          "internalType": "uint256",
          "name": "amount",
          "type": "uint256"
        }
      ],
      "name": "withdraw",
      "outputs": [],
      "stateMutability": "nonpayable",
      "type": "function"
    }
  ],
  "bytecode": "0x608060405234801561001057600080fd5b50336000806101000a81548173ffffffffffffffffffffffffffffffffffffffff021916908373ffffffffffffffffffffffffffffffffffffffff160217905550611249806100606000396000f3fe6080604052600436106100915760003560e01c8063a7bb580311610059578063a7bb58031461018f578063d0e30db0146101ce578063f0656bcc146101d8578063f337d43d14610215578063fa5408011461023e57610091565b80632e1a7d4d1461009657806330322ce7146100bf5780636f9fb98a146100fc5780638da5cb5b1461012757806397aba7f914610152575b600080fd5b3480156100a257600080fd5b506100bd60048036038101906100b8919061084e565b61027b565b005b3480156100cb57600080fd5b506100e660048036038101906100e1919061090f565b6103da565b6040516100f39190610971565b60405180910390f35b34801561010857600080fd5b50610111610410565b60405161011e919061099b565b60405180910390f35b34801561013357600080fd5b5061013c610418565b60405161014991906109c5565b60405180910390f35b34801561015e57600080fd5b5061017960048036038101906101749190610b26565b61043c565b60405161018691906109c5565b60405180910390f35b34801561019b57600080fd5b506101b660048036038101906101b19190610b82565b6104b9565b6040516101c593929190610be7565b60405180910390f35b6101d6610521565b005b3480156101e457600080fd5b506101ff60048036038101906101fa9190610c1e565b610523565b60405161020c9190610c66565b60405180910390f35b34801561022157600080fd5b5061023c60048036038101906102379190610c81565b610543565b005b34801561024a57600080fd5b5061026560048036038101906102609190610c1e565b610761565b6040516102729190610971565b60405180910390f35b60008054906101000a900473ffffffffffffffffffffffffffffffffffffffff1673ffffffffffffffffffffffffffffffffffffffff163373ffffffffffffffffffffffffffffffffffffffff1614610309576040517f08c379a000000000000000000000000000000000000000000000000000000000815260040161030090610d4d565b60405180910390fd5b60008060009054906101000a900473ffffffffffffffffffffffffffffffffffffffff1673ffffffffffffffffffffffffffffffffffffffff168260405161035090610d9e565b60006040518083038185875af1925050503d806000811461038d576040519150601f19603f3d011682016040523d82523d6000602084013e610392565b606091505b50509050806103d6576040517f08c379a00000000000000000000000000000000000000000000000000000000081526004016103cd90610dff565b60405180910390fd5b5050565b60008383836040516020016103f193929190610ea9565b6040516020818303038152906040528051906020012090509392505050565b600047905090565b60008054906101000a900473ffffffffffffffffffffffffffffffffffffffff1681565b60008061044884610761565b90506000806000610458866104b9565b925092509250600184828585604051600081526020016040526040516104819493929190610ee6565b6020604051602081039080840390855afa1580156104a3573d6000803e3d6000fd5b5050506020604051035194505050505092915050565b60008060006041845114610502576040517f08c379a00000000000000000000000000000000000000000000000000000000081526004016104f990610f77565b60405180910390fd5b6020840151925060408401519150606084015160001a90509193909250565b565b60016020528060005260406000206000915054906101000a900460ff1681565b8280471015610587576040517f08c379a000000000000000000000000000000000000000000000000000000000815260040161057e90611009565b60405180910390fd5b6001600084815260200190815260200160002060009054906101000a900460ff16156105e8576040517f08c379a00000000000000000000000000000000000000000000000000000000081526004016105df90611075565b60405180910390fd5b6105f433858585610791565b610633576040517f08c379a000000000000000000000000000000000000000000000000000000000815260040161062a906110e1565b60405180910390fd5b600180600085815260200190815260200160002060006101000a81548160ff02191690831515021790555060003373ffffffffffffffffffffffffffffffffffffffff168560405161068490610d9e565b60006040518083038185875af1925050503d80600081146106c1576040519150601f19603f3d011682016040523d82523d6000602084013e6106c6565b606091505b505090508061070a576040517f08c379a00000000000000000000000000000000000000000000000000000000081526004016107019061114d565b60405180910390fd5b3373ffffffffffffffffffffffffffffffffffffffff167fe413caa6d70a6d9b51c2af2575a2914490f614355049af8ae7cde5caab9fd201868660405161075292919061116d565b60405180910390a25050505050565b60008160405160200161077491906111ed565b604051602081830303815290604052805190602001209050919050565b60008061079f8686866103da565b905060008054906101000a900473ffffffffffffffffffffffffffffffffffffffff1673ffffffffffffffffffffffffffffffffffffffff166107e2828561043c565b73ffffffffffffffffffffffffffffffffffffffff1614915050949350505050565b6000604051905090565b600080fd5b600080fd5b6000819050919050565b61082b81610818565b811461083657600080fd5b50565b60008135905061084881610822565b92915050565b6000602082840312156108645761086361080e565b5b600061087284828501610839565b91505092915050565b600073ffffffffffffffffffffffffffffffffffffffff82169050919050565b60006108a68261087b565b9050919050565b6108b68161089b565b81146108c157600080fd5b50565b6000813590506108d3816108ad565b92915050565b6000819050919050565b6108ec816108d9565b81146108f757600080fd5b50565b600081359050610909816108e3565b92915050565b6000806000606084860312156109285761092761080e565b5b6000610936868287016108c4565b935050602061094786828701610839565b9250506040610958868287016108fa565b9150509250925092565b61096b816108d9565b82525050565b60006020820190506109866000830184610962565b92915050565b61099581610818565b82525050565b60006020820190506109b0600083018461098c565b92915050565b6109bf8161089b565b82525050565b60006020820190506109da60008301846109b6565b92915050565b600080fd5b600080fd5b6000601f19601f8301169050919050565b7f4e487b7100000000000000000000000000000000000000000000000000000000600052604160045260246000fd5b610a33826109ea565b810181811067ffffffffffffffff82111715610a5257610a516109fb565b5b80604052505050565b6000610a65610804565b9050610a718282610a2a565b919050565b600067ffffffffffffffff821115610a9157610a906109fb565b5b610a9a826109ea565b9050602081019050919050565b82818337600083830152505050565b6000610ac9610ac484610a76565b610a5b565b905082815260208101848484011115610ae557610ae46109e5565b5b610af0848285610aa7565b509392505050565b600082601f830112610b0d57610b0c6109e0565b5b8135610b1d848260208601610ab6565b91505092915050565b60008060408385031215610b3d57610b3c61080e565b5b6000610b4b858286016108fa565b925050602083013567ffffffffffffffff811115610b6c57610b6b610813565b5b610b7885828601610af8565b9150509250929050565b600060208284031215610b9857610b9761080e565b5b600082013567ffffffffffffffff811115610bb657610bb5610813565b5b610bc284828501610af8565b91505092915050565b600060ff82169050919050565b610be181610bcb565b82525050565b6000606082019050610bfc6000830186610962565b610c096020830185610962565b610c166040830184610bd8565b949350505050565b600060208284031215610c3457610c3361080e565b5b6000610c42848285016108fa565b91505092915050565b60008115159050919050565b610c6081610c4b565b82525050565b6000602082019050610c7b6000830184610c57565b92915050565b600080600060608486031215610c9a57610c9961080e565b5b6000610ca886828701610839565b9350506020610cb9868287016108fa565b925050604084013567ffffffffffffffff811115610cda57610cd9610813565b5b610ce686828701610af8565b9150509250925092565b600082825260208201905092915050565b7f4e6f7420617574686f72697a6564000000000000000000000000000000000000600082015250565b6000610d37600e83610cf0565b9150610d4282610d01565b602082019050919050565b60006020820190508181036000830152610d6681610d2a565b9050919050565b600081905092915050565b50565b6000610d88600083610d6d565b9150610d9382610d78565b600082019050919050565b6000610da982610d7b565b9150819050919050565b7f5769746864726177616c206661696c6564000000000000000000000000000000600082015250565b6000610de9601183610cf0565b9150610df482610db3565b602082019050919050565b60006020820190508181036000830152610e1881610ddc565b9050919050565b60008160601b9050919050565b6000610e3782610e1f565b9050919050565b6000610e4982610e2c565b9050919050565b610e61610e5c8261089b565b610e3e565b82525050565b6000819050919050565b610e82610e7d82610818565b610e67565b82525050565b6000819050919050565b610ea3610e9e826108d9565b610e88565b82525050565b6000610eb58286610e50565b601482019150610ec58285610e71565b602082019150610ed58284610e92565b602082019150819050949350505050565b6000608082019050610efb6000830187610962565b610f086020830186610bd8565b610f156040830185610962565b610f226060830184610962565b95945050505050565b7f496e76616c6964207369676e6174757265206c656e6774680000000000000000600082015250565b6000610f61601883610cf0565b9150610f6c82610f2b565b602082019050919050565b60006020820190508181036000830152610f9081610f54565b9050919050565b7f436f6e74726163742068617320696e73756666696369656e742062616c616e6360008201527f6500000000000000000000000000000000000000000000000000000000000000602082015250565b6000610ff3602183610cf0565b9150610ffe82610f97565b604082019050919050565b6000602082019050818103600083015261102281610fe6565b9050919050565b7f4f7264657220616c72656164792072656465656d656400000000000000000000600082015250565b600061105f601683610cf0565b915061106a82611029565b602082019050919050565b6000602082019050818103600083015261108e81611052565b9050919050565b7f496e76616c6964206f72646572206f72207369676e6174757265000000000000600082015250565b60006110cb601a83610cf0565b91506110d682611095565b602082019050919050565b600060208201905081810360008301526110fa816110be565b9050919050565b7f4661696c656420746f2073656e64207265776172640000000000000000000000600082015250565b6000611137601583610cf0565b915061114282611101565b602082019050919050565b600060208201905081810360008301526111668161112a565b9050919050565b6000604082019050611182600083018561098c565b61118f6020830184610962565b9392505050565b600081905092915050565b7f19457468657265756d205369676e6564204d6573736167653a0a333200000000600082015250565b60006111d7601c83611196565b91506111e2826111a1565b601c82019050919050565b60006111f8826111ca565b91506112048284610e92565b6020820191508190509291505056fea2646970667358221220be93f9dffa314fac138884694d22af2395be93915983b1dcb4b4d3497f85227064736f6c63430008180033",
  "linkReferences": {},
  "deployedLinkReferences": {}
}